{"abi":[{"type":"function","name":"createSender","inputs":[{"name":"initCode","type":"bytes","internalType":"bytes"}],"outputs":[{"name":"sender","type":"address","internalType":"address"}],"stateMutability":"nonpayable"}],"bytecode":{"object":"0x6080604052348015600e575f5ffd5b506101fc8061001c5f395ff3fe608060405234801561000f575f5ffd5b5060043610610029575f3560e01c8063570e1a361461002d575b5f5ffd5b61004061003b3660046100e4565b61005c565b6040516001600160a01b03909116815260200160405180910390f35b5f8061006b6014828587610152565b61007491610179565b60601c90505f6100878460148188610152565b8080601f0160208091040260200160405190810160405280939291908181526020018383808284375f92018290525084519495509360209350849250905082850182875af190505f519350806100db575f93505b50505092915050565b5f5f602083850312156100f5575f5ffd5b823567ffffffffffffffff81111561010b575f5ffd5b8301601f8101851361011b575f5ffd5b803567ffffffffffffffff811115610131575f5ffd5b856020828401011115610142575f5ffd5b6020919091019590945092505050565b5f5f85851115610160575f5ffd5b8386111561016c575f5ffd5b5050820193919092039150565b80356bffffffffffffffffffffffff1981169060148410156101bf576bffffffffffffffffffffffff196bffffffffffffffffffffffff198560140360031b1b82161691505b509291505056fea2646970667358221220207047fd2661a38acd6658e959284f6f89194c27e5112e4181bf93baf3ba306464736f6c634300081c0033","linkReferences":{}},"methodIdentifiers":{"createSender(bytes)":"570e1a36"},"id":3}